:100000009BC00000B4C00000B2C00000B0C000003F
:10001000AEC00000ACC00000AAC00000A8C0000034
:10002000A6C00000A4C00000F5C20000BCC30000D0
:100030009EC000009CC000009AC0000098C0000054
:1000400096C0000094C0000092C0000090C0000064
:100050008EC000008CC000008AC0000088C0000074
:1000600086C0000084C0000082C0000080C0000084
:100070007EC000007CC000007AC0000078C0000094
:1000800076C0000074C0000072C0000070C00000A4
:100090006EC000006CC000006AC0000068C00000B4
:1000A00066C0000064C0000062C000001C034C0079
:1000B000550046004100200043004400430020005A
:1000C000440065006D006F000000180344006500E7
:1000D00061006E002000430061006D006500720049
:1000E000610000000403090409023E00020100C08F
:1000F000320904000001020201000524001001047D
:100100002402060524060001070582030800FF09F2
:10011000040100020A0000000705040210000507A0
:100120000583021000051201100102000008EB0314
:10013000442001000102DC0111241FBECFEFDAE0F0
:10014000DEBFCDBF11E0A0E0B1E0EAE7FEE002C013
:1001500005900D92AC31B107D9F711E0ACE1B1E0F7
:1001600001C01D92A833B107E1F71AD084C648CF69
:1001700084B7877F84BF88E10FB6F89480936000CE
:10018000109260000FBE90E080E80FB6F894809364
:100190006100909361000FBE20C210922A01089561
:1001A000E7DF6CE171E080E091E0A0D57894F5DFC5
:1001B00080E091E059D580E091E040D599D4F7CF27
:1001C0000895089580E091E0AFC480E091E0A2C579
:1001D000292F33272230310539F02330310549F0FA
:1001E0002130310521F128C0EEE3F0E088EE90E007
:1001F00027C099278130910561F08230910581F007
:10020000892BD1F4E4EEF0E0E491F0E084EE90E0AC
:1002100017C0EAECF0E0E491F0E08AEC90E010C066
:10022000ECEAF0E0E491F0E08CEA90E009C0E2E171
:10023000F0E086E291E004C0E0E0F0E080E090E0F1
:10024000DA018D939C93CF0108954091360150912E
:1002500037014617570748F06115710539F4409189
:10026000E8004E774093E80001C0BA01FC0140E08D
:1002700033C080912F01882309F442C0853009F4EE
:1002800041C08091E80083FD39C08091E80082FD83
:100290002FC08091E80080FF1FC09091F3008091F3
:1002A000F200392F20E0A901482BCA0106C0419174
:1002B0004093F1006150710901966115710519F0C3
:1002C00088309105A0F341E0089709F040E0809163
:1002D000E8008E778093E8006115710551F64111B1
:1002E000C8CF06C080912F01882351F0853051F08E
:1002F0008091E80082FFF6CF80E0089581E00895C4
:1003000082E0089583E008954091360150913701CD
:100310004617570748F06115710539F44091E80018
:100320004E774093E80001C0BA01FC0140E034C0C0
:1003300080912F01882309F443C0853009F442C01D
:100340008091E80083FD3AC08091E80082FD30C0D2
:100350008091E80080FF20C09091F3008091F2002E
:10036000392F20E0A901482BCA0107C044914093CE
:10037000F10031966150710901966115710519F00E
:100380008830910598F341E0089709F040E08091AA
:10039000E8008E778093E8006115710549F64111F8
:1003A000C7CF06C080912F01882351F0853051F0CE
:1003B0008091E80082FFF6CF80E0089581E0089503
:1003C00082E0089583E00895982F2CC09093E9006F
:1003D000981739F07091EC002091ED005091F000E9
:1003E00003C0242F762F50E021FD02C09F5F1AC06A
:1003F0003091EB003E7F3093EB003091ED003D7F7C
:100400003093ED003091EB0031603093EB0070934E
:10041000EC002093ED005093F0002091EE0027FDBA
:10042000E5CF07C0973090F28F708093E90081E0AC
:10043000089580E008950F931F93CF93DF93062FC5
:10044000EC0110E02FC09881911103C01F5F259629
:1004500029C02C81E981FA817B81892F8F708730B7
:1004600010F080E022C0223010F056E001C052E0CF
:1004700028E030E040E003C04F5F220F331F2E170B
:100480003F07D0F34295407F452B692F661F6627B3
:10049000661F90E4799F90011124622B95DF8111F2
:1004A000D5CFDFCF1013CFCF81E0DF91CF911F9158
:1004B0000F9108958091300187FD05C08091E8007B
:1004C00080FF0EC012C08091E80082FD05C08091BF
:1004D0002F018111F8CF08958091E8008B7708C033
:1004E00080912F018111EACF08958091E8008E77E5
:1004F0008093E80008958091E4009091E50045E63E
:100500002091EC0020FD1FC023C020912F01222349
:1005100091F0253091F02091EB0025FD10C0209145
:10052000E4003091E5002817390751F34150C90123
:1005300039F784E0089582E0089583E0089581E02A
:10054000089580E008952091E80020FFDECFF9CFE4
:100550002091E80022FFD9CFF4CF0F931F93CF93C0
:10056000DF934BD052D0C8EDD0E088818F7788835D
:1005700088818068888388818F7D888319BC1092E8
:100580002F0110922B0110922D0110922C0100EEE0
:1005900010E0F80180818B7F80838881816088836F
:1005A00042E060E080E010DFE1EEF0E080818E7FED
:1005B0008083E2EEF0E080818160808380818860CA
:1005C0008083F80180818E7F808388818061888329
:1005D000DF91CF911F910F910895E8EDF0E08081B8
:1005E0008F7E8083E7EDF0E080818160808384E00E
:1005F00082BF81E080932E01B0CFE8EDF0E08081F2
:100600008E7F80831092E20008951092DA0010929B
:10061000E10008951F920F920FB60F9211242F93AD
:100620003F934F935F936F937F938F939F93AF937A
:10063000BF93EF93FF938091E10082FF0AC0809106
:10064000E20082FF06C08091E1008B7F8093E10091
:100650004ED28091DA0080FF1DC08091D80080FFCB
:1006600019C08091DA008E7F8093DA008091D900E2
:1006700080FF0CC080E189BD82E189BD09B400FE24
:10068000FDCF81E080932F019BDD04C019BC109247
:100690002F0197DD8091E10080FF18C08091E2007A
:1006A00080FF14C08091E2008E7F8093E2008091F1
:1006B000E20080618093E2008091D80080628093A4
:1006C000D80019BC85E080932F0111D28091E10000
:1006D00084FF2DC08091E20084FF29C080E189BDA4
:1006E00082E189BD09B400FEFDCF8091D8008F7DE5
:1006F0008093D8008091E1008F7E8093E10080910B
:10070000E2008F7E8093E2008091E200816080931E
:10071000E20080912B01811104C08091E30087FFEA
:1007200002C084E001C081E080932F01E0D180917C
:10073000E10083FF27C08091E20083FF23C0809106
:10074000E100877F8093E10082E080932F01109287
:100750002B018091E1008E7F8093E1008091E20087
:100760008E7F8093E2008091E20080618093E200BE
:1007700042E060E080E028DE8091F00088608093B5
:10078000F000B5D1FF91EF91BF91AF919F918F9103
:100790007F916F915F914F913F912F910F900FBE7D
:1007A0000F901F9018951F920F920FB60F92112461
:1007B0002F933F934F935F936F937F938F939F9369
:1007C000AF93BF93CF93EF93FF938091E9008F7026
:1007D0009091EC0090FF02C090E801C090E0C92F1A
:1007E000C82B1092E9008091F000877F8093F00081
:1007F00078941CD01092E9008091F000886080937A
:10080000F000CF70C093E900FF91EF91CF91BF91BD
:10081000AF919F918F917F916F915F914F913F9198
:100820002F910F900FBE0F901F9018951F93CF938D
:10083000DF93CDB7DEB7AC970FB6F894DEBF0FBE2F
:10084000CDBFE0E3F1E08091F100819321E0E83356
:10085000F207C9F7BADC8091E80083FF30C18091CC
:10086000300190913101953009F487C038F491300E
:10087000B1F170F0933009F022C131C0983009F421
:10088000F3C0993009F4FFC0963009F018C19BC03D
:10089000803821F0823809F012C108C080912C0103
:1008A00090912D01992389F082600FC080913401CD
:1008B000909135018F7099278093E9008091EB002A
:1008C00085FB882780F91092E9009091E800977FD6
:1008D0009093E8008093F1001092F100D0C088233B
:1008E00019F0823009F0EBC08F7121F0823009F0ED
:1008F000E6C00BC080913201813009F0E0C0933036
:1009000009F080E080932D012FC080913201811188
:100910002BC080913401909135018F7099270097F9
:1009200009F4CDC08093E9002091EB0020FF1CC0AA
:1009300020913101233021F48091EB00806212C0BC
:100940009091EB0090619093EB0021E030E001C0CA
:10095000220F8A95EAF72093EA001092EA0080912C
:10096000EB0088608093EB001092E9008091E80032
:10097000877F8093E8009EDDA2C08111A0C0809196
:100980003201909133018F779927182F9091E300CE
:100990009078982B9093E3008091E800877F809374
:1009A000E80088DD8091E80080FFFCCF8091E300C3
:1009B00080688093E300112311F083E001C082E09E
:1009C00080932F017CC08058823008F078C08091DD
:1009D0003201909133018C3D23E0920771F583E061
:1009E0008A838AE289834FB7F894DE01139620E068
:1009F0003EE051E2E32FF0E050935700E49120FFF6
:100A000003C0E295EF703F5FEF708E2F90E0EA3009
:100A100010F0C79601C0C0968D939D932F5F24312F
:100A200049F74FBF8091E800877F8093E8006AE232
:100A300070E0CE01019609DC11C0AE01455D5F4F4B
:100A400060913401C5DB0097D1F12091E800277F48
:100A50002093E800BC018BA59CA556DC8091E800A2
:100A60008B778093E8002BC0803849F58091E800AF
:100A7000877F8093E80080912B018093F100809123
:100A8000E8008E7776CF81111AC0909132019230B2
:100A9000B0F48091E800877F8093E80090932B0169
:100AA00009DD80912B01811104C08091E30087FF53
:100AB00002C084E001C081E080932F0183DB80913C
:100AC000E80083FF0AC08091E800877F8093E800F8
:100AD0008091EB0080628093EB00AC960FB6F894A7
:100AE000DEBF0FBECDBFDF91CF911F910895089556
:100AF000CF9380912F018823A9F08091E9008F7016
:100B00009091EC0090FF02C090E801C090E0C92FE6
:100B1000C82B1092E9008091E80083FD87DECF703A
:100B2000C093E900CF910895CF93DF93EC014096F5
:100B3000FC018BE0DF011D928A95E9F782E08C834E
:100B4000898783E08E8761E0CE01019674DC88237B
:100B500061F061E0CE0106966EDC882331F061E041
:100B6000CE010B96DF91CF9166CC80E0DF91CF91E3
:100B70000895CF93C62F20912F012430F1F4FC016A
:100B80004489558966897789452B462B472BA9F0DF
:100B900081818F708093E9008091E80085FF04C017
:100BA000C093F10080E00AC08091E8008E778093C6
:100BB000E800A1DC8823A1F301C082E0CF91089571
:100BC000FB01682F84859585D4DF882319F02FEFEA
:100BD0003FEF02C020E030E0C901089520912F01CD
:100BE000243051F5FC014489558966897789452B64
:100BF000462B472B09F181818F708093E90030915A
:100C0000F3002091F200932F80E0822B892B11F4C6
:100C100080E008959091E8008091E8008E778093BD
:100C2000E80095FDF5CF67DC811107C09091E800E1
:100C30009E779093E800089582E0089520912F0117
:100C4000243089F4FC014489558966897789452BCC
:100C5000462B472B41F021812F702093E9002091F2
:100C6000E80020FDBBCF089520912F01243019F01A
:100C70002FEF3FEF2EC0FC014489558966897789A3
:100C8000452B462B472BA1F386818F708093E9007B
:100C90008091E80082FFECCF3091F3002091F200C8
:100CA000932F80E0822B892B21F02091F10030E0FE
:100CB00002C02FEF3FEF5091F3004091F200952FCB
:100CC00080E0842B892B29F48091E8008B77809336
:100CD000E800C9010895FC0184859585C5DF9C0164
:100CE00097FF02C02EEF3FEFC9010895FB012EE0F0
:100CF000DB011D922A95E9F723E0238320EE35E0FE
:100D0000318720872BE636E03387228795878487D3
:100D100008950895CF93DF93EC018091E80083FF5D
:100D2000A7C0888190E020913401309135012817C7
:100D3000390709F09DC080913101813261F020F4C2
:100D4000803209F095C03DC0823209F46DC0833213
:100D500009F08EC07DC080913001813A09F088C0D1
:100D60008091E800877F8093E8008091E80080FF11
:100D7000FCCF4C895D896E897F894093F100BB2748
:100D8000A72F962F852F8093F100CB01AA27BB2791
:100D90008093F100472F5527662777274093F1006E
:100DA000888D8093F100898D8093F1008A8D8093E6
:100DB000F1008091E8008E778093E800DF91CF9179
:100DC00079CB80913001813209F052C08091E800E6
:100DD000877F8093E80005C080912F01882309F464
:100DE00047C08091E80082FFF7CF3091F100209159
:100DF000F1009091F1008091F1003C8B2D8B9E8B46
:100E00008F8B8091F100888F8091F100898F809184
:100E1000F1008A8F8091E8008B778093E8004ADBAD
:100E2000CE01DF91CF9175CF80913001813201F5F4
:100E30008091E800877F8093E8003CDB809132015D
:100E400090913301998B888BCE01DF91CF9161CF47
:100E500080913001813261F48091E800877F809336
:100E6000E80028DB60913201CE01DF91CF9151CFB4
:0A0E7000DF91CF910895F894FFCFB1
:100E7A000083100000010410000001820800000134
:0C0E8A000000000000000000000000005C
:00000001FF
